:10092D00323020202D20202D20202020202020207E
:10093D000020203A20203A20202020202020202096
:10094D00430053756E004D6F6E005475650057650D
:10095D006400546875004672690053617400416CFF
:10096D0061726D20436C6F636B20536574200020A2
:10097D00202020203A202020202020202020200070
:10098D004F464600204F4E0020202053746F705F5D
:10099D00576174636820202000202030303A3030B9
:0A09AD003A303020303020202000C6
:100E7A00070911090106121E2801130001140002B4
:030E8A0010000055
:080EA500E4F5E7F5E3F5E422B2
:100DE400AD07AC06E4F5E275E78375E5018CE3ED48
:0F0DF400F5E475E64675E6B900120EA5AFE222EA
:100E1D00AB0775E78375E5028CE3EDF5E48BE275C1
:090E2D00E64675E6B900020EA5C7
:100E3600AD07AC0675E78375E5038CE3EDF5E47560
:090E4600E64675E6B900020EA5AE
:0B0E9A000000000000000000DFF62256
:10000300C2907F32120E9AD2907F06120E9AA2905D
:0700130092013090FDA201F3
:01001A0022C3
:020DC200AE077A
:100DC4007D01ED601AC29000005E7004C290800242
:0F0DD400D2907F06120E9AD290ED25E0FD80E3BB
:010DE30022ED
:100D0A007D01ED601EC2900000D290000020900587
:100D1A00F452068003ED42067F06120E9AED25E094
:050D2A00FD80DFAF06B3
:010D2F0022A1
:100B0800120003920020000A7FCC120DC27F44120B
:100B18000DC212000392002000357FCC120DC27F57
:100B2800BE120DC2120D0AAC07120D0AEFFEAD047B
:100B38007C00E42DFBEC3EFAAD03FC12040BE4FB55
:100B4800FA7920783F120300120444AA06AB07AFD3
:030B580003AE02E7
:010B5B002277
:040D7B007F0A7E006D
:100D7F00E4FDFCC3ED9FEC9E5015E4FBFA0BBB00AA
:0F0D8F00010AEB64704A70F50DBD00010C80E4A1
:010D9E002232
:100E4F00C2A7C2A6C2A58F807F027E00120D7FD2DD
:070E5F00A5120D7FC2A522C0
:0F0D30007E00CFCDCFCECCCE120533EF2430FFD7
:100D3F00D2A7C2A6C2A58F807F027E00120D7FD2DE
:070D4F00A5120D7FC2A522D1
:090D5600AF0E120E037D047F01B3
:100D5F008F18A905E5187007E92480FF120E4FE5DB
:0C0D6F0018B40107E924C0FF120E4F2247
:060CB4007BFF7A0979A61E
:100CBA008B188A19891AAB18AA19A91A1204C560BD
:100CCA0013051AE51A7002051914F91204C5FF1260
:050CDA000D3F80E22245
:100E66007F38120E4F7F06120E4F7F0C120E4F7FE9
:040E760001020E4F18
:100CDF00E4FDFF120D5F7BFF7A09792D120CBAE448
:100CEF00FD7F01120D5F7BFF7A09793E120CBA7DF1
:0B0CFF000E7F01120D5F7FDF020D3F32
:100E0300A907E975F00A842430FF120D3FE975F054
:0A0E13000A84E5F02430FF020D3FD1
:100AA400EF14B40700505C900AB975F003A4C58331
:100AB40025F0C58373020ACE020AD6020ADE020AB0
:100AC400E6020AEE020AF6020AFE7BFF7A09794F71
:100AD400802E7BFF7A09795380267BFF7A09795728
:100AE400801E7BFF7A09795B80167BFF7A09795F28
:100AF400800E7BFF7A09796380067BFF7A09796728
:040B0400120CBA22F3
:1009B7008E188F19C3E5186480948050127F2D120A
:1009C7000D3FC3E49519F519E49518F5188023C36D
:1009D700E51994E8E518648094834011AE18AF19BF
:1009E7007C037DE8120533EF2430FF80027F20125D
:1009F7000D3FAE18AF197C037DE81205337F6412F3
:100A07000D30AE18AF197C007D641205337F0A12D2
:100A17000D307F2E120D3FAE18AF197C007D0A12E4
:090A27000533ED2430FF020D3F00
:100B5C007D02E4FF120D5FAF09120E037D05E4FF69
:100B6C00120D5FAF0A120E037D08E4FF120D5FAF8A
:100B7C000B120E03E4FD7F01120D5FAF0D120E037D
:100B8C007D037F01120D5FAF0E120E037D067F01F8
:100B9C00120D5FAF0F120E037D0CE4FF120D5FAF51
:040BAC000C020AA489
:070EB500C293C291C2922218
:100C7B00D293E4FEEF30E004D2928002C292D29182
:100C8B0000C29100EFC313FF0EBE08E8E4FEED3087
:100C9B00E004D2928002C292D29100C29100EDC3C5
:080CAB0013FD0EBE08E8C29320
:010CB300221E
:100C0400D293E4FDEF30E004D2928002C292D291FA
:100C140000C29100EFC313FF0DBD08E8E4FDEEC36D
:100C240013FE309205430680800353067FD2910061
:0B0C3400C291000DBD08E7C293AF069F
:010C3F002292
:100A3000E4FF74092FF8E6FE75F00A84C454F0FD53
:100A4000EE75F00A84AEF0ED2EFC74092FF8A604C2
:100A50000FBF07DEE4FD7F8E120C7B7D807F80124E
:100A60000C7BAD097F8C120C7BAD0A7F88120C7B4E
:100A7000AD0B7F86120C7BAD0C7F8A120C7BAD0D0B
:100A80007F84120C7BAD0E7F82120C7BAD0F7F80BA
:100A9000120C7BE50F547FFD7F80120C7B7D807FE5
:040AA0008E020C7B3B
:100BB0007F8D120C048F097F89120C048F0A7F87A6
:100BC000120C048F0B7F8B120C048F0C7F85120C80
:100BD000048F0D7F83120C048F0E7F81120C04EFA3
:100BE000547FF50FE4FF74092FF8E6FEC4540F7527
:100BF000F00AA4FDEE540F2DFE74092FF8A6060F7F
:030C0000BF07E348
:010C030022CE
:0C0E8E00C2A07F287E00120D7FD2A0229F
:10001E0030B2030202FF120E8E7F0F120E4F7D03BF
:10002E00E4FF120D5F120D7B30B2FD120D7B20B579
:10003E0026E509D3940040021509120E8E7D02E4C6
:10004E00FF120D5FAF09120E037D03E4FF120D5F69
:10005E007F2C7E01120D7F20B626E509C3946350D6
:10006E00020509120E8E7D02E4FF120D5FAF09121A
:10007E000E037D03E4FF120D5F7F2C7E01120D7FB8
:10008E0020B2AB120E8E7D06E4FF120D5F120D7BB9
:10009E0030B2FD120D7B20B526E50AD39401400245
:1000AE00150A120E8E7D05E4FF120D5FAF0A120EB9
:1000BE00037D06E4FF120D5F7F2C7E01120D7F2063
:1000CE00B626E50AC3940C5002050A120E8E7D0563
:1000DE00E4FF120D5FAF0A120E037D06E4FF120D50
:1000EE005F7F2C7E01120D7F20B2AB120E8E7D092A
:1000FE00E4FF120D5F120D7B30B2FD120D7B20B5A9
:10010E0026E50BD394014002150B120E8E7D08E4EA
:10011E00FF120D5FAF0B120E037D09E4FF120D5F90
:10012E007F2C7E01120D7F20B626E50BC3941F5047
:10013E0002050B120E8E7D08E4FF120D5FAF0B123F
:10014E000E037D09E4FF120D5F7F2C7E01120D7FE1
:10015E0020B2AB120E8E7D0EE4FF120D5F120D7BE0
:10016E0030B2FD120D7B20B526E50CD39401400272
:10017E00150C120E8E7D0CE4FF120D5FAF0C120AE1
:10018E00A47D0EE4FF120D5F7F2C7E01120D7F20E9
:10019E00B626E50CC394075002050C120E8E7D0C8C
:1001AE00E4FF120D5FAF0C120AA47D0EE4FF120DD8
:1001BE005F7F2C7E01120D7F20B2AB120E8E7D0161
:1001CE007F01120D5F120D7B30B2FD120D7B20B53B
:1001DE0026E50DD394004002150D120E8EE4FD7F20
:1001EE0001120D5FAF0D120E037D017F01120D5F27
:1001FE007F2C7E01120D7F20B626E50DC39417507D
:10020E0002050D120E8EE4FD7F01120D5FAF0D1271
:10021E000E037D017F01120D5F7F2C7E01120D7F7B
:10022E0020B2AB120E8E120D5B120D7B30B2FD1290
:10023E000D7B20B51DE50ED394004002150E120E57
:10024E008E7D037F01120D5F120D567F2C7E0112E3
:10025E000D7F20B61DE50EC3943B5002050E120E07
:10026E008E7D037F01120D5F120D567F2C7E0112C3
:10027E000D7F20B2BD120E8E7D077F01120D5F1213
:10028E000D7B30B2FD120D7B20B526E50FD3940009
:10029E004002150F120E8E7D067F01120D5FAF0FFD
:1002AE00120E037D077F01120D5F7F2C7E01120D52
:1002BE007F20B626E50FC3943B5002050F120E8E1B
:1002CE007D067F01120D5FAF0F120E037D077F01BA
:1002DE00120D5F7F2C7E01120D7F20B2AB120E8E9F
:1002EE007F0C120E4F120A30120D7B30B2FD120D22
:0202FE007B2261
:1005770030B30302072E120E8EE4FDFF120D5F7BD0
:10058700FF7A09796B120CBAE4FD7F01120D5F7BCC
:10059700FF7A09797C120CBA7D037F01120D5FAFD8
:1005A70015120E037D067F01120D5FAF12120E03A7
:1005B7007D0A7F01120D5FE5087BFF70067A0979D6
:1005C7008D80047A097991120CBA120D5B7F0F1294
:1005D7000E4F120D7B30B3FD120D7B20B51FE515B5
:1005E700D3940040021515120E8E7D037F01120D64
:1005F7005FAF15120D587F2C7E01120D7F20B61F9D
:10060700E515C3941750020515120E8E7D037F0161
:10061700120D5FAF15120D587F2C7E01120D7F2032
:10062700B3B9120E8E7D077F01120D5F120D7B305D
:10063700B3FD120D7B20B526E512D39400400215B9
:1006470012120E8E7D067F01120D5FAF12120E037E
:100657007D077F01120D5F7F2C7E01120D7F20B673
:1006670026E512C3943B50020512120E8E7D067FBB
:1006770001120D5FAF12120E037D077F01120D5F8E
:100687007F2C7E01120D7F20B3AB120E8E7D0C7F67
:1006970001120D5F120D7B30B3FD120D7B20B529C2
:1006A700E508B40103E4F508120E8E7D0A7F0112F6
:1006B7000D5F7BFF7A09798D120CBA7D0C7F0112D1
:1006C7000D5F7F2C7E01120D7F20B628E508700391
:1006D700750801120E8E7D0A7F01120D5F7BFF7A6E
:1006E700097991120CBA7D0C7F01120D5F7F2C7E68
:1006F70001120D7F20B3A6120E8E7F0C120E4F1221
:100707000CDF120D7B30B3FD120D7B7F007E2012B4
:100717000E367D007C20AF15120E1D0DAF12120E86
:080727001D0DAF08120E1D228A
:10072F0030B40302080F120E8EE4FDFF120D5F7B33
:10073F00FF7A097995120CBAE4FD7F01120D5F1251
:10074F000CB4120D7B30B4FD120D7B20B4030207E5
:10075F00F720B515120E8E208E04D28E8002C28E17
:10076F00120D7B30B5FD120D7B20B61C120E8EE4E0
:10077F00F514F510F511FD7F01120D5F120CB41277
:10078F000D7B30B6FD120D7B308EC07D027F0112C6
:10079F000D5FAE10AF117C0E7D101204DE120E0332
:1007AF007D057F01120D5FAE10AF117C0E7D101213
:1007BF0004DE7E007F3CCFCDCFCECCCE1204DE1236
:1007CF000E037D087F01120D5FAE10AF117C007D0F
:1007DF003C1204DEAF05120E037D0B7F01120D5F7D
:1007EF00AF14120E0302075A120E8EC28EE4F514C6
:1007FF00F510F511120CDF120D7B30B4FD120D7BCD
:01080F0022C6
:100C4000E508B40111E515B50D0CE512B50E07E583
:100C50000F7003751301E50FB43B03E4F51330B5D2
:100C60000320B603E4F513E513B4010EC2A07F32EE
:0B0C70007E00120D7FD2A0120D7F222B
:080EAD00758910D2ABD2AF220F
:10081000120EAD120E66120EB5120CDF7F81120C95
:1008200004EFC394804003120A307F007E20120D33
:10083000E48F15E515D39417400375150C7F017EE1
:1008400020120DE48F12E512D3943B400375121E63
:100850007F027E20120DE48F08E508D39401400347
:10086000E4F508120B08BE0308BF5205120D7B8089
:10087000F2120BB0120B5C120C40120B088E168F8A
:10088000177D097F01120D5FAF17AE161209B7125F
:10089000001E12057712072F7F647E00120D7F80E5
:0108A000D087
:03001B00020D9F34
:100D9F00C0E0C0D0758DD8758BF00514E514C394E1
:100DAF0064400B7514000511E51170020510D0D0C9
:030DBF00D0E0324F
:10030000EC4D6011E8497017ED33EC3304600DE4F7
:10031000FCFFFEFD22E933E8330470F80204B0125A
:10032000047B58046009E4CC24815006285009025B
:1003300004BA2840030204B7C0E0EB4A7044B98015
:1003400006D0E0FB0204A6EF4E701CBD8008EBFF58
:10035000EAFEE9FD80EBE98DF0A4FEE5F00203E999
:10036000E9CDF9EAFEEBFFEF89F0A4FCE5F0CE89D8
:10037000F0A42EFFE435F0CD89F0A42DFEE435F095
:100380008067EF4E7005BD80D780C3EF8BF0A4ACC3
:10039000F0EE8BF0A42CFCE435F0F8EF8AF0A42CFE
:1003A000E5F038FCE433CB8DF0A42CFCE5F03BF811
:1003B000EE8AF0A42CFCE5F038F8E433CF89F0A401
:1003C0002CFCE5F038CF3400CE89F0A42FFFE5F007
:1003D0003EFEE433C98DF0A42EFEE5F039CD8AF05F
:1003E000A42FFFE5F03EFEE43DFD33D0E0FB5007D7
:1003F0000BBB000F0204BAEC2CFCEF33FFEE33FE14
:06040000ED33FD02049241
:1004060075F020800E75F010800575F0087D007E71
:10041600007F003392D530D503120569EC334010C6
:10042600EF33FFEE33FEED33FDEC33FCD5F0ED227A
:0E043600E5F0247EA2D513CC92E7CDCEFF22B6
:10044400EDD2E7CD33EC3392D524814006E4FFFEB0
:10045400FDFC22FCE4CFCECDCC24E0501174FF800F
:10046400EDC3CC13CCCD13CDCE13CECF13CF0470AC
:07047400F030D5DE0205693E
:10047B00E9D2E7C933E833F892D5EDD2E7CD33ECC7
:07048B0033FC5002B2D52240
:10049200EC30E7100FBF000C0EBE00080DBD0004CB
:1004A2000BEB6014A2D5EB13FCED92E7FD2274FF77
:1004B200FCFDFEFF22E480F8A2D574FF13FC7D80D0
:0304C200E480EFE4
:030000000208A152
:0C08A100787FE4F6D8FD7581200208E89D
:1004C500BB010689828A83E0225002E722BBFE0235
:0904D500E32289828A83E4932268
:1004DE00BC000BBE0029EF8DF084FFADF022E4CC02
:1004EE00F875F008EF2FFFEE33FEEC33FCEE9DECCB
:1004FE00984005FCEE9DFE0FD5F0E9E4CEFD22ED11
:10050E00F8F5F0EE8420D21CFEADF075F008EF2F5A
:10051E00FFED33FD4007985006D5F0F222C398FD4B
:05052E000FD5F0EA22E8
:10053300C2D5EC30E709B2D5E4C39DFDE49CFCEEE3
:1005430030E715B2D5E4C39FFFE49EFE1204DEC379
:10055300E49DFDE49CFC80031204DE30D507C3E474
:060563009FFFE49EFE2252
:0E056900C3E49FFFE49EFEE49DFDE49CFC22A3
:1008AD00020810E493A3F8E493A34003F68001F249
:1008BD0008DFF48029E493A3F85407240CC8C3334C
:1008CD00C4540F4420C8834004F456800146F6DF1B
:1008DD00E4800B0102040810204080900E7AE47E23
:1008ED00019360BCA3FF543F30E509541FFEE49310
:1008FD00A360010ECF54C025E060A840B8E493A3D7
:10090D00FAE493A3F8E493A3C8C582C8CAC583CA01
:10091D00F0A3C8C582C8CAC583CADFE9DEE780BEB9
:010E8D000064
:00000001FF
